{
  "address": "0xAA5c5496e2586F81d8d2d0B970eB85aB088639c2",
  "abi": [
    {
      "inputs": [
        {
          "internalType": "address",
          "name": "_caller",
          "type": "address"
        }
      ],
      "stateMutability": "nonpayable",
      "type": "constructor"
    },
    {
      "anonymous": false,
      "inputs": [
        {
          "indexed": true,
          "internalType": "address",
          "name": "owner",
          "type": "address"
        },
        {
          "indexed": true,
          "internalType": "address",
          "name": "approved",
          "type": "address"
        },
        {
          "indexed": true,
          "internalType": "uint256",
          "name": "tokenId",
          "type": "uint256"
        }
      ],
      "name": "Approval",
      "type": "event"
    },
    {
      "anonymous": false,
      "inputs": [
        {
          "indexed": true,
          "internalType": "address",
          "name": "owner",
          "type": "address"
        },
        {
          "indexed": true,
          "internalType": "address",
          "name": "operator",
          "type": "address"
        },
        {
          "indexed": false,
          "internalType": "bool",
          "name": "approved",
          "type": "bool"
        }
      ],
      "name": "ApprovalForAll",
      "type": "event"
    },
    {
      "anonymous": false,
      "inputs": [
        {
          "indexed": true,
          "internalType": "address",
          "name": "from",
          "type": "address"
        },
        {
          "indexed": true,
          "internalType": "address",
          "name": "to",
          "type": "address"
        },
        {
          "indexed": true,
          "internalType": "uint256",
          "name": "tokenId",
          "type": "uint256"
        }
      ],
      "name": "Transfer",
      "type": "event"
    },
    {
      "inputs": [
        {
          "internalType": "address",
          "name": "newInstructor",
          "type": "address"
        },
        {
          "internalType": "string",
          "name": "_name",
          "type": "string"
        },
        {
          "internalType": "string",
          "name": "profession",
          "type": "string"
        },
        {
          "internalType": "string",
          "name": "briefIntro",
          "type": "string"
        },
        {
          "internalType": "string[]",
          "name": "links",
          "type": "string[]"
        },
        {
          "internalType": "string",
          "name": "imageLink",
          "type": "string"
        },
        {
          "internalType": "address",
          "name": "receiver",
          "type": "address"
        }
      ],
      "name": "MintNft",
      "outputs": [
        {
          "internalType": "uint256",
          "name": "",
          "type": "uint256"
        }
      ],
      "stateMutability": "nonpayable",
      "type": "function"
    },
    {
      "inputs": [
        {
          "internalType": "string",
          "name": "_name",
          "type": "string"
        },
        {
          "internalType": "string",
          "name": "profession",
          "type": "string"
        },
        {
          "internalType": "string",
          "name": "briefIntro",
          "type": "string"
        },
        {
          "internalType": "string[]",
          "name": "links",
          "type": "string[]"
        },
        {
          "internalType": "string",
          "name": "imageLink",
          "type": "string"
        },
        {
          "internalType": "uint256",
          "name": "tokenId",
          "type": "uint256"
        }
      ],
      "name": "URI",
      "outputs": [],
      "stateMutability": "nonpayable",
      "type": "function"
    },
    {
      "inputs": [
        {
          "internalType": "address",
          "name": "to",
          "type": "address"
        },
        {
          "internalType": "uint256",
          "name": "tokenId",
          "type": "uint256"
        }
      ],
      "name": "approve",
      "outputs": [],
      "stateMutability": "nonpayable",
      "type": "function"
    },
    {
      "inputs": [
        {
          "internalType": "address",
          "name": "owner",
          "type": "address"
        }
      ],
      "name": "balanceOf",
      "outputs": [
        {
          "internalType": "uint256",
          "name": "",
          "type": "uint256"
        }
      ],
      "stateMutability": "view",
      "type": "function"
    },
    {
      "inputs": [
        {
          "internalType": "uint256",
          "name": "tokenId",
          "type": "uint256"
        }
      ],
      "name": "getApproved",
      "outputs": [
        {
          "internalType": "address",
          "name": "",
          "type": "address"
        }
      ],
      "stateMutability": "view",
      "type": "function"
    },
    {
      "inputs": [
        {
          "internalType": "address",
          "name": "_address",
          "type": "address"
        }
      ],
      "name": "getTokensOwned",
      "outputs": [
        {
          "internalType": "uint256[]",
          "name": "",
          "type": "uint256[]"
        }
      ],
      "stateMutability": "view",
      "type": "function"
    },
    {
      "inputs": [
        {
          "internalType": "address",
          "name": "owner",
          "type": "address"
        },
        {
          "internalType": "address",
          "name": "operator",
          "type": "address"
        }
      ],
      "name": "isApprovedForAll",
      "outputs": [
        {
          "internalType": "bool",
          "name": "",
          "type": "bool"
        }
      ],
      "stateMutability": "view",
      "type": "function"
    },
    {
      "inputs": [],
      "name": "name",
      "outputs": [
        {
          "internalType": "string",
          "name": "",
          "type": "string"
        }
      ],
      "stateMutability": "view",
      "type": "function"
    },
    {
      "inputs": [
        {
          "internalType": "uint256",
          "name": "tokenId",
          "type": "uint256"
        }
      ],
      "name": "ownerOf",
      "outputs": [
        {
          "internalType": "address",
          "name": "",
          "type": "address"
        }
      ],
      "stateMutability": "view",
      "type": "function"
    },
    {
      "inputs": [],
      "name": "s_tokenCounter",
      "outputs": [
        {
          "internalType": "uint256",
          "name": "",
          "type": "uint256"
        }
      ],
      "stateMutability": "view",
      "type": "function"
    },
    {
      "inputs": [
        {
          "internalType": "address",
          "name": "from",
          "type": "address"
        },
        {
          "internalType": "address",
          "name": "to",
          "type": "address"
        },
        {
          "internalType": "uint256",
          "name": "tokenId",
          "type": "uint256"
        }
      ],
      "name": "safeTransferFrom",
      "outputs": [],
      "stateMutability": "nonpayable",
      "type": "function"
    },
    {
      "inputs": [
        {
          "internalType": "address",
          "name": "from",
          "type": "address"
        },
        {
          "internalType": "address",
          "name": "to",
          "type": "address"
        },
        {
          "internalType": "uint256",
          "name": "tokenId",
          "type": "uint256"
        },
        {
          "internalType": "bytes",
          "name": "data",
          "type": "bytes"
        }
      ],
      "name": "safeTransferFrom",
      "outputs": [],
      "stateMutability": "nonpayable",
      "type": "function"
    },
    {
      "inputs": [
        {
          "internalType": "address",
          "name": "operator",
          "type": "address"
        },
        {
          "internalType": "bool",
          "name": "approved",
          "type": "bool"
        }
      ],
      "name": "setApprovalForAll",
      "outputs": [],
      "stateMutability": "nonpayable",
      "type": "function"
    },
    {
      "inputs": [
        {
          "internalType": "bytes4",
          "name": "interfaceId",
          "type": "bytes4"
        }
      ],
      "name": "supportsInterface",
      "outputs": [
        {
          "internalType": "bool",
          "name": "",
          "type": "bool"
        }
      ],
      "stateMutability": "view",
      "type": "function"
    },
    {
      "inputs": [],
      "name": "symbol",
      "outputs": [
        {
          "internalType": "string",
          "name": "",
          "type": "string"
        }
      ],
      "stateMutability": "view",
      "type": "function"
    },
    {
      "inputs": [
        {
          "internalType": "uint256",
          "name": "tokenId",
          "type": "uint256"
        }
      ],
      "name": "tokenURI",
      "outputs": [
        {
          "internalType": "string",
          "name": "",
          "type": "string"
        }
      ],
      "stateMutability": "view",
      "type": "function"
    },
    {
      "inputs": [
        {
          "internalType": "address",
          "name": "from",
          "type": "address"
        },
        {
          "internalType": "address",
          "name": "to",
          "type": "address"
        },
        {
          "internalType": "uint256",
          "name": "tokenId",
          "type": "uint256"
        }
      ],
      "name": "transferFrom",
      "outputs": [],
      "stateMutability": "nonpayable",
      "type": "function"
    }
  ],
  "transactionHash": "0x0590e0661561f925589e2985225815e22eba1fef3980cf8952c3aa45e2018e52",
  "args": [
    "0x0aD6371dd7E9923d9968D63Eb8B9858c700abD9d"
  ],
  "numDeployments": 1,
  "solcInputHash": "94910edf265d15be052c443b1db50b99",
  "bytecode": "0x60a06040523480156200001157600080fd5b5060405162003af738038062003af783398181016040528101906200003791906200022c565b6040518060400160405280600b81526020017f5269644c6561726e4e46540000000000000000000000000000000000000000008152506040518060400160405280600381526020017f524c4e00000000000000000000000000000000000000000000000000000000008152508160009080519060200190620000bb92919062000112565b508060019080519060200190620000d492919062000112565b5050508073ffffffffffffffffffffffffffffffffffffffff1660808173ffffffffffffffffffffffffffffffffffffffff168152505050620002c3565b82805462000120906200028d565b90600052602060002090601f01602090048101928262000144576000855562000190565b82601f106200015f57805160ff191683800117855562000190565b8280016001018555821562000190579182015b828111156200018f57825182559160200191906001019062000172565b5b5090506200019f9190620001a3565b5090565b5b80821115620001be576000816000905550600101620001a4565b5090565b600080fd5b600073ffffffffffffffffffffffffffffffffffffffff82169050919050565b6000620001f482620001c7565b9050919050565b6200020681620001e7565b81146200021257600080fd5b50565b6000815190506200022681620001fb565b92915050565b600060208284031215620002455762000244620001c2565b5b6000620002558482850162000215565b91505092915050565b7f4e487b7100000000000000000000000000000000000000000000000000000000600052602260045260246000fd5b60006002820490506001821680620002a657607f821691505b60208210811415620002bd57620002bc6200025e565b5b50919050565b608051613818620002df6000396000610b6301526138186000f3fe608060405234801561001057600080fd5b506004361061010b5760003560e01c806370a08231116100a2578063c267184711610071578063c2671847146102b6578063c87b56dd146102d2578063d004876414610302578063d95502a414610332578063e985e9c5146103625761010b565b806370a082311461023057806395d89b4114610260578063a22cb4651461027e578063b88d4fde1461029a5761010b565b80630b21a83b116100de5780630b21a83b146101aa57806323b872dd146101c857806342842e0e146101e45780636352211e146102005761010b565b806301ffc9a71461011057806306fdde0314610140578063081812fc1461015e578063095ea7b31461018e575b600080fd5b61012a60048036038101906101259190611e8f565b610392565b6040516101379190611ed7565b60405180910390f35b610148610474565b6040516101559190611f8b565b60405180910390f35b61017860048036038101906101739190611fe3565b610506565b6040516101859190612051565b60405180910390f35b6101a860048036038101906101a39190612098565b61054c565b005b6101b2610664565b6040516101bf91906120e7565b60405180910390f35b6101e260048036038101906101dd9190612102565b61066a565b005b6101fe60048036038101906101f99190612102565b6106ca565b005b61021a60048036038101906102159190611fe3565b6106ea565b6040516102279190612051565b60405180910390f35b61024a60048036038101906102459190612155565b610771565b60405161025791906120e7565b60405180910390f35b610268610829565b6040516102759190611f8b565b60405180910390f35b610298600480360381019061029391906121ae565b6108bb565b005b6102b460048036038101906102af9190612323565b6108d1565b005b6102d060048036038101906102cb919061252d565b610933565b005b6102ec60048036038101906102e79190611fe3565b610a1b565b6040516102f99190611f8b565b60405180910390f35b61031c60048036038101906103179190612155565b610ac8565b6040516103299190612704565b60405180910390f35b61034c60048036038101906103479190612726565b610b5f565b60405161035991906120e7565b60405180910390f35b61037c60048036038101906103779190612854565b610c98565b6040516103899190611ed7565b60405180910390f35b60007f80ac58cd000000000000000000000000000000000000000000000000000000007bffffffffffffffffffffffffffffffffffffffffffffffffffffffff1916827bffffffffffffffffffffffffffffffffffffffffffffffffffffffff1916148061045d57507f5b5e139f000000000000000000000000000000000000000000000000000000007bffffffffffffffffffffffffffffffffffffffffffffffffffffffff1916827bffffffffffffffffffffffffffffffffffffffffffffffffffffffff1916145b8061046d575061046c82610d2c565b5b9050919050565b606060008054610483906128c3565b80601f01602080910402602001604051908101604052809291908181526020018280546104af906128c3565b80156104fc5780601f106104d1576101008083540402835291602001916104fc565b820191906000526020600020905b8154815290600101906020018083116104df57829003601f168201915b5050505050905090565b600061051182610d96565b6004600083815260200190815260200160002060009054906101000a900473ffffffffffffffffffffffffffffffffffffffff169050919050565b6000610557826106ea565b90508073ffffffffffffffffffffffffffffffffffffffff168373ffffffffffffffffffffffffffffffffffffffff1614156105c8576040517f08c379a00000000000000000000000000000000000000000000000000000000081526004016105bf90612967565b60405180910390fd5b8073ffffffffffffffffffffffffffffffffffffffff166105e7610de1565b73ffffffffffffffffffffffffffffffffffffffff161480610616575061061581610610610de1565b610c98565b5b610655576040517f08c379a000000000000000000000000000000000000000000000000000000000815260040161064c906129f9565b60405180910390fd5b61065f8383610de9565b505050565b60065481565b61067b610675610de1565b82610ea2565b6106ba576040517f08c379a00000000000000000000000000000000000000000000000000000000081526004016106b190612a8b565b60405180910390fd5b6106c5838383610f37565b505050565b6106e5838383604051806020016040528060008152506108d1565b505050565b6000806106f683611231565b9050600073ffffffffffffffffffffffffffffffffffffffff168173ffffffffffffffffffffffffffffffffffffffff161415610768576040517f08c379a000000000000000000000000000000000000000000000000000000000815260040161075f90612af7565b60405180910390fd5b80915050919050565b60008073ffffffffffffffffffffffffffffffffffffffff168273ffffffffffffffffffffffffffffffffffffffff1614156107e2576040517f08c379a00000000000000000000000000000000000000000000000000000000081526004016107d990612b89565b60405180910390fd5b600360008373ffffffffffffffffffffffffffffffffffffffff1673ffffffffffffffffffffffffffffffffffffffff168152602001908152602001600020549050919050565b606060018054610838906128c3565b80601f0160208091040260200160405190810160405280929190818152602001828054610864906128c3565b80156108b15780601f10610886576101008083540402835291602001916108b1565b820191906000526020600020905b81548152906001019060200180831161089457829003601f168201915b5050505050905090565b6108cd6108c6610de1565b838361126e565b5050565b6108e26108dc610de1565b83610ea2565b610921576040517f08c379a000000000000000000000000000000000000000000000000000000000815260040161091890612a8b565b60405180910390fd5b61092d848484846113db565b50505050565b600061093d611437565b6109c8610948610474565b89898860008151811061095e5761095d612ba9565b5b60200260200101518960018151811061097a57610979612ba9565b5b6020026020010151898c6040518060a00160405280606d81526020016136b6606d91396040516020016109b4989796959493929190612f58565b60405160208183030381529060405261144e565b6040516020016109d9929190613038565b604051602081830303815290604052905080600760008481526020019081526020016000209080519060200190610a11929190611d80565b5050505050505050565b6060610ac1600760008481526020019081526020016000208054610a3e906128c3565b80601f0160208091040260200160405190810160405280929190818152602001828054610a6a906128c3565b8015610ab75780601f10610a8c57610100808354040283529160200191610ab7565b820191906000526020600020905b815481529060010190602001808311610a9a57829003601f168201915b50505050506115c7565b9050919050565b6060600860008373ffffffffffffffffffffffffffffffffffffffff1673ffffffffffffffffffffffffffffffffffffffff168152602001908152602001600020805480602002602001604051908101604052809291908181526020018280548015610b5357602002820191906000526020600020905b815481526020019060010190808311610b3f575b50505050509050919050565b60007f000000000000000000000000000000000000000000000000000000000000000073ffffffffffffffffffffffffffffffffffffffff163373ffffffffffffffffffffffffffffffffffffffff1614610bef576040517f08c379a0000000000000000000000000000000000000000000000000000000008152600401610be6906130a8565b60405180910390fd5b600060065490506001600654610c0591906130f7565b600681905550600860008473ffffffffffffffffffffffffffffffffffffffff1673ffffffffffffffffffffffffffffffffffffffff168152602001908152602001600020819080600181540180825580915050600190039060005260206000200160009091909190915055610c7b89826117c2565b610c89888888888886610933565b80915050979650505050505050565b6000600560008473ffffffffffffffffffffffffffffffffffffffff1673ffffffffffffffffffffffffffffffffffffffff16815260200190815260200160002060008373ffffffffffffffffffffffffffffffffffffffff1673ffffffffffffffffffffffffffffffffffffffff16815260200190815260200160002060009054906101000a900460ff16905092915050565b60007f01ffc9a7000000000000000000000000000000000000000000000000000000007bffffffffffffffffffffffffffffffffffffffffffffffffffffffff1916827bffffffffffffffffffffffffffffffffffffffffffffffffffffffff1916149050919050565b610d9f816117e0565b610dde576040517f08c379a0000000000000000000000000000000000000000000000000000000008152600401610dd590612af7565b60405180910390fd5b50565b600033905090565b816004600083815260200190815260200160002060006101000a81548173ffffffffffffffffffffffffffffffffffffffff021916908373ffffffffffffffffffffffffffffffffffffffff160217905550808273ffffffffffffffffffffffffffffffffffffffff16610e5c836106ea565b73ffffffffffffffffffffffffffffffffffffffff167f8c5be1e5ebec7d5bd14f71427d1e84f3dd0314c0f7b2291e5b200ac8c7c3b92560405160405180910390a45050565b600080610eae836106ea565b90508073ffffffffffffffffffffffffffffffffffffffff168473ffffffffffffffffffffffffffffffffffffffff161480610ef05750610eef8185610c98565b5b80610f2e57508373ffffffffffffffffffffffffffffffffffffffff16610f1684610506565b73ffffffffffffffffffffffffffffffffffffffff16145b91505092915050565b8273ffffffffffffffffffffffffffffffffffffffff16610f57826106ea565b73ffffffffffffffffffffffffffffffffffffffff1614610fad576040517f08c379a0000000000000000000000000000000000000000000000000000000008152600401610fa4906131bf565b60405180910390fd5b600073ffffffffffffffffffffffffffffffffffffffff168273ffffffffffffffffffffffffffffffffffffffff16141561101d576040517f08c379a000000000000000000000000000000000000000000000000000000000815260040161101490613251565b60405180910390fd5b61102a8383836001611821565b8273ffffffffffffffffffffffffffffffffffffffff1661104a826106ea565b73ffffffffffffffffffffffffffffffffffffffff16146110a0576040517f08c379a0000000000000000000000000000000000000000000000000000000008152600401611097906131bf565b60405180910390fd5b6004600082815260200190815260200160002060006101000a81549073ffffffffffffffffffffffffffffffffffffffff02191690556001600360008573ffffffffffffffffffffffffffffffffffffffff1673ffffffffffffffffffffffffffffffffffffffff168152602001908152602001600020600082825403925050819055506001600360008473ffffffffffffffffffffffffffffffffffffffff1673ffffffffffffffffffffffffffffffffffffffff16815260200190815260200160002060008282540192505081905550816002600083815260200190815260200160002060006101000a81548173ffffffffffffffffffffffffffffffffffffffff021916908373ffffffffffffffffffffffffffffffffffffffff160217905550808273ffffffffffffffffffffffffffffffffffffffff168473ffffffffffffffffffffffffffffffffffffffff167fddf252ad1be2c89b69c2b068fc378daa952ba7f163c4a11628f55a4df523b3ef60405160405180910390a461122c8383836001611947565b505050565b60006002600083815260200190815260200160002060009054906101000a900473ffffffffffffffffffffffffffffffffffffffff169050919050565b8173ffffffffffffffffffffffffffffffffffffffff168373ffffffffffffffffffffffffffffffffffffffff1614156112dd576040517f08c379a00000000000000000000000000000000000000000000000000000000081526004016112d4906132bd565b60405180910390fd5b80600560008573ffffffffffffffffffffffffffffffffffffffff1673ffffffffffffffffffffffffffffffffffffffff16815260200190815260200160002060008473ffffffffffffffffffffffffffffffffffffffff1673ffffffffffffffffffffffffffffffffffffffff16815260200190815260200160002060006101000a81548160ff0219169083151502179055508173ffffffffffffffffffffffffffffffffffffffff168373ffffffffffffffffffffffffffffffffffffffff167f17307eab39ab6107e8899845ad3d59bd9653f200f220920489ca2b5937696c31836040516113ce9190611ed7565b60405180910390a3505050565b6113e6848484610f37565b6113f28484848461194d565b611431576040517f08c379a00000000000000000000000000000000000000000000000000000000081526004016114289061334f565b60405180910390fd5b50505050565b606060405180602001604052806000815250905090565b6060600082511415611471576040518060200160405280600081525090506115c2565b600060405180606001604052806040815260200161372360409139905060006003600285516114a091906130f7565b6114aa919061339e565b60046114b691906133cf565b905060006020826114c791906130f7565b67ffffffffffffffff8111156114e0576114df6121f8565b5b6040519080825280601f01601f1916602001820160405280156115125781602001600182028036833780820191505090505b509050818152600183018586518101602084015b81831015611581576003830192508251603f8160121c168501518253600182019150603f81600c1c168501518253600182019150603f8160061c168501518253600182019150603f8116850151825360018201915050611526565b60038951066001811461159b57600281146115ab576115b6565b613d3d60f01b60028303526115b6565b603d60f81b60018303525b50505050508093505050505b919050565b6060600082905060008151141561162e57600067ffffffffffffffff8111156115f3576115f26121f8565b5b6040519080825280601f01601f1916602001820160405280156116255781602001600182028036833780820191505090505b509150506117bd565b60006004825161163e9190613429565b1461167e576040517f08c379a0000000000000000000000000000000000000000000000000000000008152600401611675906134a6565b60405180910390fd5b60006040518060a001604052806080815260200161376360809139905060006003600484516116ad919061339e565b6116b791906133cf565b905060006020826116c891906130f7565b67ffffffffffffffff8111156116e1576116e06121f8565b5b6040519080825280601f01601f1916602001820160405280156117135781602001600182028036833780820191505090505b5090508351840151603d60ff8216141561174357600183039250613d3d61ffff82161415611742576001830392505b5b828252600184018586518101602085015b818310156117b057600483019250825160ff8082168601511660ff808360081c168701511660061b0160ff808360101c1687015116600c1b60ff808460181c168801511660121b01018060e81b83526003830192505050611754565b5050505050809450505050505b919050565b6117dc828260405180602001604052806000815250611ae4565b5050565b60008073ffffffffffffffffffffffffffffffffffffffff1661180283611231565b73ffffffffffffffffffffffffffffffffffffffff1614159050919050565b600181111561194157600073ffffffffffffffffffffffffffffffffffffffff168473ffffffffffffffffffffffffffffffffffffffff16146118b55780600360008673ffffffffffffffffffffffffffffffffffffffff1673ffffffffffffffffffffffffffffffffffffffff16815260200190815260200160002060008282546118ad91906134c6565b925050819055505b600073ffffffffffffffffffffffffffffffffffffffff168373ffffffffffffffffffffffffffffffffffffffff16146119405780600360008573ffffffffffffffffffffffffffffffffffffffff1673ffffffffffffffffffffffffffffffffffffffff168152602001908152602001600020600082825461193891906130f7565b925050819055505b5b50505050565b50505050565b600061196e8473ffffffffffffffffffffffffffffffffffffffff16611b3f565b15611ad7578373ffffffffffffffffffffffffffffffffffffffff1663150b7a02611997610de1565b8786866040518563ffffffff1660e01b81526004016119b9949392919061354f565b602060405180830381600087803b1580156119d357600080fd5b505af1925050508015611a0457506040513d601f19601f82011682018060405250810190611a0191906135b0565b60015b611a87573d8060008114611a34576040519150601f19603f3d011682016040523d82523d6000602084013e611a39565b606091505b50600081511415611a7f576040517f08c379a0000000000000000000000000000000000000000000000000000000008152600401611a769061334f565b60405180910390fd5b805181602001fd5b63150b7a0260e01b7bffffffffffffffffffffffffffffffffffffffffffffffffffffffff1916817bffffffffffffffffffffffffffffffffffffffffffffffffffffffff191614915050611adc565b600190505b949350505050565b611aee8383611b62565b611afb600084848461194d565b611b3a576040517f08c379a0000000000000000000000000000000000000000000000000000000008152600401611b319061334f565b60405180910390fd5b505050565b6000808273ffffffffffffffffffffffffffffffffffffffff163b119050919050565b600073ffffffffffffffffffffffffffffffffffffffff168273ffffffffffffffffffffffffffffffffffffffff161415611bd2576040517f08c379a0000000000000000000000000000000000000000000000000000000008152600401611bc990613629565b60405180910390fd5b611bdb816117e0565b15611c1b576040517f08c379a0000000000000000000000000000000000000000000000000000000008152600401611c1290613695565b60405180910390fd5b611c29600083836001611821565b611c32816117e0565b15611c72576040517f08c379a0000000000000000000000000000000000000000000000000000000008152600401611c6990613695565b60405180910390fd5b6001600360008473ffffffffffffffffffffffffffffffffffffffff1673ffffffffffffffffffffffffffffffffffffffff16815260200190815260200160002060008282540192505081905550816002600083815260200190815260200160002060006101000a81548173ffffffffffffffffffffffffffffffffffffffff021916908373ffffffffffffffffffffffffffffffffffffffff160217905550808273ffffffffffffffffffffffffffffffffffffffff16600073ffffffffffffffffffffffffffffffffffffffff167fddf252ad1be2c89b69c2b068fc378daa952ba7f163c4a11628f55a4df523b3ef60405160405180910390a4611d7c600083836001611947565b5050565b828054611d8c906128c3565b90600052602060002090601f016020900481019282611dae5760008555611df5565b82601f10611dc757805160ff1916838001178555611df5565b82800160010185558215611df5579182015b82811115611df4578251825591602001919060010190611dd9565b5b509050611e029190611e06565b5090565b5b80821115611e1f576000816000905550600101611e07565b5090565b6000604051905090565b600080fd5b600080fd5b60007fffffffff0000000000000000000000000000000000000000000000000000000082169050919050565b611e6c81611e37565b8114611e7757600080fd5b50565b600081359050611e8981611e63565b92915050565b600060208284031215611ea557611ea4611e2d565b5b6000611eb384828501611e7a565b91505092915050565b60008115159050919050565b611ed181611ebc565b82525050565b6000602082019050611eec6000830184611ec8565b92915050565b600081519050919050565b600082825260208201905092915050565b60005b83811015611f2c578082015181840152602081019050611f11565b83811115611f3b576000848401525b50505050565b6000601f19601f8301169050919050565b6000611f5d82611ef2565b611f678185611efd565b9350611f77818560208601611f0e565b611f8081611f41565b840191505092915050565b60006020820190508181036000830152611fa58184611f52565b905092915050565b6000819050919050565b611fc081611fad565b8114611fcb57600080fd5b50565b600081359050611fdd81611fb7565b92915050565b600060208284031215611ff957611ff8611e2d565b5b600061200784828501611fce565b91505092915050565b600073ffffffffffffffffffffffffffffffffffffffff82169050919050565b600061203b82612010565b9050919050565b61204b81612030565b82525050565b60006020820190506120666000830184612042565b92915050565b61207581612030565b811461208057600080fd5b50565b6000813590506120928161206c565b92915050565b600080604083850312156120af576120ae611e2d565b5b60006120bd85828601612083565b92505060206120ce85828601611fce565b9150509250929050565b6120e181611fad565b82525050565b60006020820190506120fc60008301846120d8565b92915050565b60008060006060848603121561211b5761211a611e2d565b5b600061212986828701612083565b935050602061213a86828701612083565b925050604061214b86828701611fce565b9150509250925092565b60006020828403121561216b5761216a611e2d565b5b600061217984828501612083565b91505092915050565b61218b81611ebc565b811461219657600080fd5b50565b6000813590506121a881612182565b92915050565b600080604083850312156121c5576121c4611e2d565b5b60006121d385828601612083565b92505060206121e485828601612199565b9150509250929050565b600080fd5b600080fd5b7f4e487b7100000000000000000000000000000000000000000000000000000000600052604160045260246000fd5b61223082611f41565b810181811067ffffffffffffffff8211171561224f5761224e6121f8565b5b80604052505050565b6000612262611e23565b905061226e8282612227565b919050565b600067ffffffffffffffff82111561228e5761228d6121f8565b5b61229782611f41565b9050602081019050919050565b82818337600083830152505050565b60006122c66122c184612273565b612258565b9050828152602081018484840111156122e2576122e16121f3565b5b6122ed8482856122a4565b509392505050565b600082601f83011261230a576123096121ee565b5b813561231a8482602086016122b3565b91505092915050565b6000806000806080858703121561233d5761233c611e2d565b5b600061234b87828801612083565b945050602061235c87828801612083565b935050604061236d87828801611fce565b925050606085013567ffffffffffffffff81111561238e5761238d611e32565b5b61239a878288016122f5565b91505092959194509250565b600067ffffffffffffffff8211156123c1576123c06121f8565b5b6123ca82611f41565b9050602081019050919050565b60006123ea6123e5846123a6565b612258565b905082815260208101848484011115612406576124056121f3565b5b6124118482856122a4565b509392505050565b600082601f83011261242e5761242d6121ee565b5b813561243e8482602086016123d7565b91505092915050565b600067ffffffffffffffff821115612462576124616121f8565b5b602082029050602081019050919050565b600080fd5b600061248b61248684612447565b612258565b905080838252602082019050602084028301858111156124ae576124ad612473565b5b835b818110156124f557803567ffffffffffffffff8111156124d3576124d26121ee565b5b8086016124e08982612419565b855260208501945050506020810190506124b0565b5050509392505050565b600082601f830112612514576125136121ee565b5b8135612524848260208601612478565b91505092915050565b60008060008060008060c0878903121561254a57612549611e2d565b5b600087013567ffffffffffffffff81111561256857612567611e32565b5b61257489828a01612419565b965050602087013567ffffffffffffffff81111561259557612594611e32565b5b6125a189828a01612419565b955050604087013567ffffffffffffffff8111156125c2576125c1611e32565b5b6125ce89828a01612419565b945050606087013567ffffffffffffffff8111156125ef576125ee611e32565b5b6125fb89828a016124ff565b935050608087013567ffffffffffffffff81111561261c5761261b611e32565b5b61262889828a01612419565b92505060a061263989828a01611fce565b9150509295509295509295565b600081519050919050565b600082825260208201905092915050565b6000819050602082019050919050565b61267b81611fad565b82525050565b600061268d8383612672565b60208301905092915050565b6000602082019050919050565b60006126b182612646565b6126bb8185612651565b93506126c683612662565b8060005b838110156126f75781516126de8882612681565b97506126e983612699565b9250506001810190506126ca565b5085935050505092915050565b6000602082019050818103600083015261271e81846126a6565b905092915050565b600080600080600080600060e0888a03121561274557612744611e2d565b5b60006127538a828b01612083565b975050602088013567ffffffffffffffff81111561277457612773611e32565b5b6127808a828b01612419565b965050604088013567ffffffffffffffff8111156127a1576127a0611e32565b5b6127ad8a828b01612419565b955050606088013567ffffffffffffffff8111156127ce576127cd611e32565b5b6127da8a828b01612419565b945050608088013567ffffffffffffffff8111156127fb576127fa611e32565b5b6128078a828b016124ff565b93505060a088013567ffffffffffffffff81111561282857612827611e32565b5b6128348a828b01612419565b92505060c06128458a828b01612083565b91505092959891949750929550565b6000806040838503121561286b5761286a611e2d565b5b600061287985828601612083565b925050602061288a85828601612083565b9150509250929050565b7f4e487b7100000000000000000000000000000000000000000000000000000000600052602260045260246000fd5b600060028204905060018216806128db57607f821691505b602082108114156128ef576128ee612894565b5b50919050565b7f4552433732313a20617070726f76616c20746f2063757272656e74206f776e6560008201527f7200000000000000000000000000000000000000000000000000000000000000602082015250565b6000612951602183611efd565b915061295c826128f5565b604082019050919050565b6000602082019050818103600083015261298081612944565b9050919050565b7f4552433732313a20617070726f76652063616c6c6572206973206e6f7420746f60008201527f6b656e206f776e6572206f7220617070726f76656420666f7220616c6c000000602082015250565b60006129e3603d83611efd565b91506129ee82612987565b604082019050919050565b60006020820190508181036000830152612a12816129d6565b9050919050565b7f4552433732313a2063616c6c6572206973206e6f7420746f6b656e206f776e6560008201527f72206f7220617070726f76656400000000000000000000000000000000000000602082015250565b6000612a75602d83611efd565b9150612a8082612a19565b604082019050919050565b60006020820190508181036000830152612aa481612a68565b9050919050565b7f4552433732313a20696e76616c696420746f6b656e2049440000000000000000600082015250565b6000612ae1601883611efd565b9150612aec82612aab565b602082019050919050565b60006020820190508181036000830152612b1081612ad4565b9050919050565b7f4552433732313a2061646472657373207a65726f206973206e6f74206120766160008201527f6c6964206f776e65720000000000000000000000000000000000000000000000602082015250565b6000612b73602983611efd565b9150612b7e82612b17565b604082019050919050565b60006020820190508181036000830152612ba281612b66565b9050919050565b7f4e487b7100000000000000000000000000000000000000000000000000000000600052603260045260246000fd5b600081905092915050565b7f7b226e616d65223a220000000000000000000000000000000000000000000000600082015250565b6000612c19600983612bd8565b9150612c2482612be3565b600982019050919050565b6000612c3a82611ef2565b612c448185612bd8565b9350612c54818560208601611f0e565b80840191505092915050565b7f222c20226465736372697074696f6e223a22416e204e4654207468617420726560008201527f70726573656e74207468617420796f752061726520616e20696e73747275637460208201527f6f72206f6e20746865205269646c6561726e20706c6174666f726d222c200000604082015250565b6000612ce2605e83612bd8565b9150612ced82612c60565b605e82019050919050565b7f224f776e6572223a5b7b226e616d65223a202200000000000000000000000000600082015250565b6000612d2e601383612bd8565b9150612d3982612cf8565b601382019050919050565b7f222c202270726f66657373696f6e223a22000000000000000000000000000000600082015250565b6000612d7a601183612bd8565b9150612d8582612d44565b601182019050919050565b7f222c20226c696e6b73223a5b7b226c696e6b6564496e223a2200000000000000600082015250565b6000612dc6601983612bd8565b9150612dd182612d90565b601982019050919050565b7f222c202266616365426f6f6b223a220000000000000000000000000000000000600082015250565b6000612e12600f83612bd8565b9150612e1d82612ddc565b600f82019050919050565b7f227d5d2c202270726f66696c6550696374757265223a22000000000000000000600082015250565b6000612e5e601783612bd8565b9150612e6982612e28565b601782019050919050565b7f222c20226272696566496e74726f223a22000000000000000000000000000000600082015250565b6000612eaa601183612bd8565b9150612eb582612e74565b601182019050919050565b7f227d5d2c2022696d616765555249223a22000000000000000000000000000000600082015250565b6000612ef6601183612bd8565b9150612f0182612ec0565b601182019050919050565b7f227d000000000000000000000000000000000000000000000000000000000000600082015250565b6000612f42600283612bd8565b9150612f4d82612f0c565b600282019050919050565b6000612f6382612c0c565b9150612f6f828b612c2f565b9150612f7a82612cd5565b9150612f8582612d21565b9150612f91828a612c2f565b9150612f9c82612d6d565b9150612fa88289612c2f565b9150612fb382612db9565b9150612fbf8288612c2f565b9150612fca82612e05565b9150612fd68287612c2f565b9150612fe182612e51565b9150612fed8286612c2f565b9150612ff882612e9d565b91506130048285612c2f565b915061300f82612ee9565b915061301b8284612c2f565b915061302682612f35565b91508190509998505050505050505050565b60006130448285612c2f565b91506130508284612c2f565b91508190509392505050565b7f63616e6e6f742062652063616c6c656400000000000000000000000000000000600082015250565b6000613092601083611efd565b915061309d8261305c565b602082019050919050565b600060208201905081810360008301526130c181613085565b9050919050565b7f4e487b7100000000000000000000000000000000000000000000000000000000600052601160045260246000fd5b600061310282611fad565b915061310d83611fad565b9250827fffffffffffffffffffffffffffffffffffffffffffffffffffffffffffffffff03821115613142576131416130c8565b5b828201905092915050565b7f4552433732313a207472616e736665722066726f6d20696e636f72726563742060008201527f6f776e6572000000000000000000000000000000000000000000000000000000602082015250565b60006131a9602583611efd565b91506131b48261314d565b604082019050919050565b600060208201905081810360008301526131d88161319c565b9050919050565b7f4552433732313a207472616e7366657220746f20746865207a65726f2061646460008201527f7265737300000000000000000000000000000000000000000000000000000000602082015250565b600061323b602483611efd565b9150613246826131df565b604082019050919050565b6000602082019050818103600083015261326a8161322e565b9050919050565b7f4552433732313a20617070726f766520746f2063616c6c657200000000000000600082015250565b60006132a7601983611efd565b91506132b282613271565b602082019050919050565b600060208201905081810360008301526132d68161329a565b9050919050565b7f4552433732313a207472616e7366657220746f206e6f6e20455243373231526560008201527f63656976657220696d706c656d656e7465720000000000000000000000000000602082015250565b6000613339603283611efd565b9150613344826132dd565b604082019050919050565b600060208201905081810360008301526133688161332c565b9050919050565b7f4e487b7100000000000000000000000000000000000000000000000000000000600052601260045260246000fd5b60006133a982611fad565b91506133b483611fad565b9250826133c4576133c361336f565b5b828204905092915050565b60006133da82611fad565b91506133e583611fad565b9250817fffffffffffffffffffffffffffffffffffffffffffffffffffffffffffffffff048311821515161561341e5761341d6130c8565b5b828202905092915050565b600061343482611fad565b915061343f83611fad565b92508261344f5761344e61336f565b5b828206905092915050565b7f696e76616c696420626173653634206465636f64657220696e70757400000000600082015250565b6000613490601c83611efd565b915061349b8261345a565b602082019050919050565b600060208201905081810360008301526134bf81613483565b9050919050565b60006134d182611fad565b91506134dc83611fad565b9250828210156134ef576134ee6130c8565b5b828203905092915050565b600081519050919050565b600082825260208201905092915050565b6000613521826134fa565b61352b8185613505565b935061353b818560208601611f0e565b61354481611f41565b840191505092915050565b60006080820190506135646000830187612042565b6135716020830186612042565b61357e60408301856120d8565b81810360608301526135908184613516565b905095945050505050565b6000815190506135aa81611e63565b92915050565b6000602082840312156135c6576135c5611e2d565b5b60006135d48482850161359b565b91505092915050565b7f4552433732313a206d696e7420746f20746865207a65726f2061646472657373600082015250565b6000613613602083611efd565b915061361e826135dd565b602082019050919050565b6000602082019050818103600083015261364281613606565b9050919050565b7f4552433732313a20746f6b656e20616c7265616479206d696e74656400000000600082015250565b600061367f601c83611efd565b915061368a82613649565b602082019050919050565b600060208201905081810360008301526136ae81613672565b905091905056fe697066732f6261666b7265696277776b78626279366a647233777a616764343577686764646878636c3368656d333236746d74727737363233346575366335793f66696c656e616d653d57494e5f32303233303232375f31305f32305f30345f50726f2532302832292e6a70674142434445464748494a4b4c4d4e4f505152535455565758595a6162636465666768696a6b6c6d6e6f707172737475767778797a303132333435363738392b2f000000000000000000000000000000000000000000000000000000000000000000000000000000000000003e0000003f3435363738393a3b3c3d00000000000000000102030405060708090a0b0c0d0e0f101112131415161718190000000000001a1b1c1d1e1f202122232425262728292a2b2c2d2e2f303132330000000000a264697066735822122073e54fdafc4de015edb4bc191a51fd29cda81b64c088afea42d471cd4f7a98d764736f6c63430008090033",
  "devdoc": {
    "kind": "dev",
    "methods": {
      "approve(address,uint256)": {
        "details": "See {IERC721-approve}."
      },
      "balanceOf(address)": {
        "details": "See {IERC721-balanceOf}."
      },
      "getApproved(uint256)": {
        "details": "See {IERC721-getApproved}."
      },
      "isApprovedForAll(address,address)": {
        "details": "See {IERC721-isApprovedForAll}."
      },
      "name()": {
        "details": "See {IERC721Metadata-name}."
      },
      "ownerOf(uint256)": {
        "details": "See {IERC721-ownerOf}."
      },
      "safeTransferFrom(address,address,uint256)": {
        "details": "See {IERC721-safeTransferFrom}."
      },
      "safeTransferFrom(address,address,uint256,bytes)": {
        "details": "See {IERC721-safeTransferFrom}."
      },
      "setApprovalForAll(address,bool)": {
        "details": "See {IERC721-setApprovalForAll}."
      },
      "supportsInterface(bytes4)": {
        "details": "See {IERC165-supportsInterface}."
      },
      "symbol()": {
        "details": "See {IERC721Metadata-symbol}."
      },
      "tokenURI(uint256)": {
        "details": "See {IERC721Metadata-tokenURI}."
      },
      "transferFrom(address,address,uint256)": {
        "details": "See {IERC721-transferFrom}."
      }
    },
    "version": 1
  },
  "userdoc": {
    "kind": "user",
    "methods": {},
    "version": 1
  },
  "storageLayout": {
    "storage": [
      {
        "astId": 25,
        "contract": "contracts/RLNFT.sol:RLNFT",
        "label": "_name",
        "offset": 0,
        "slot": "0",
        "type": "t_string_storage"
      },
      {
        "astId": 27,
        "contract": "contracts/RLNFT.sol:RLNFT",
        "label": "_symbol",
        "offset": 0,
        "slot": "1",
        "type": "t_string_storage"
      },
      {
        "astId": 31,
        "contract": "contracts/RLNFT.sol:RLNFT",
        "label": "_owners",
        "offset": 0,
        "slot": "2",
        "type": "t_mapping(t_uint256,t_address)"
      },
      {
        "astId": 35,
        "contract": "contracts/RLNFT.sol:RLNFT",
        "label": "_balances",
        "offset": 0,
        "slot": "3",
        "type": "t_mapping(t_address,t_uint256)"
      },
      {
        "astId": 39,
        "contract": "contracts/RLNFT.sol:RLNFT",
        "label": "_tokenApprovals",
        "offset": 0,
        "slot": "4",
        "type": "t_mapping(t_uint256,t_address)"
      },
      {
        "astId": 45,
        "contract": "contracts/RLNFT.sol:RLNFT",
        "label": "_operatorApprovals",
        "offset": 0,
        "slot": "5",
        "type": "t_mapping(t_address,t_mapping(t_address,t_bool))"
      },
      {
        "astId": 2803,
        "contract": "contracts/RLNFT.sol:RLNFT",
        "label": "s_tokenCounter",
        "offset": 0,
        "slot": "6",
        "type": "t_uint256"
      },
      {
        "astId": 2810,
        "contract": "contracts/RLNFT.sol:RLNFT",
        "label": "IdtoURI",
        "offset": 0,
        "slot": "7",
        "type": "t_mapping(t_uint256,t_string_storage)"
      },
      {
        "astId": 2815,
        "contract": "contracts/RLNFT.sol:RLNFT",
        "label": "addressToIds",
        "offset": 0,
        "slot": "8",
        "type": "t_mapping(t_address,t_array(t_uint256)dyn_storage)"
      }
    ],
    "types": {
      "t_address": {
        "encoding": "inplace",
        "label": "address",
        "numberOfBytes": "20"
      },
      "t_array(t_uint256)dyn_storage": {
        "base": "t_uint256",
        "encoding": "dynamic_array",
        "label": "uint256[]",
        "numberOfBytes": "32"
      },
      "t_bool": {
        "encoding": "inplace",
        "label": "bool",
        "numberOfBytes": "1"
      },
      "t_mapping(t_address,t_array(t_uint256)dyn_storage)": {
        "encoding": "mapping",
        "key": "t_address",
        "label": "mapping(address => uint256[])",
        "numberOfBytes": "32",
        "value": "t_array(t_uint256)dyn_storage"
      },
      "t_mapping(t_address,t_bool)": {
        "encoding": "mapping",
        "key": "t_address",
        "label": "mapping(address => bool)",
        "numberOfBytes": "32",
        "value": "t_bool"
      },
      "t_mapping(t_address,t_mapping(t_address,t_bool))": {
        "encoding": "mapping",
        "key": "t_address",
        "label": "mapping(address => mapping(address => bool))",
        "numberOfBytes": "32",
        "value": "t_mapping(t_address,t_bool)"
      },
      "t_mapping(t_address,t_uint256)": {
        "encoding": "mapping",
        "key": "t_address",
        "label": "mapping(address => uint256)",
        "numberOfBytes": "32",
        "value": "t_uint256"
      },
      "t_mapping(t_uint256,t_address)": {
        "encoding": "mapping",
        "key": "t_uint256",
        "label": "mapping(uint256 => address)",
        "numberOfBytes": "32",
        "value": "t_address"
      },
      "t_mapping(t_uint256,t_string_storage)": {
        "encoding": "mapping",
        "key": "t_uint256",
        "label": "mapping(uint256 => string)",
        "numberOfBytes": "32",
        "value": "t_string_storage"
      },
      "t_string_storage": {
        "encoding": "bytes",
        "label": "string",
        "numberOfBytes": "32"
      },
      "t_uint256": {
        "encoding": "inplace",
        "label": "uint256",
        "numberOfBytes": "32"
      }
    }
  }
}